:020000040800F2
:100000000013002029020008C91A00083116000850
:100010007D1A00081F040008852900080000000060
:10002000000000000000000000000000F5200008B3
:100030000905000800000000A7200008F7200008BC
:10004000430200084302000843020008430200087C
:10005000430200084302000843020008430200086C
:10006000430200084302000843020008430200085C
:10007000430200084302000843020008430200084C
:10008000430200084302000843020008430200083C
:10009000430200084302000843020008430200082C
:1000A000430200084302000843020008430200081C
:1000B000430200084302000843020008430200080C
:1000C00043020008430200084302000843020008FC
:1000D00043020008152800088D2800080929000897
:1000E00043020008430200084302000843020008DC
:1000F00043020008430200084302000843020008CC
:1001000043020008430200084302000843020008BB
:10011000C5240008412500084302000843020008E6
:10012000430200084302000843020008430200089B
:10013000430200084302000843020008430200088B
:10014000430200084302000843020008430200087B
:10015000430200084302000843020008430200086B
:10016000430200084302000843020008430200085B
:100170004302000843020008430200080000000098
:10018000430200084302000800F002F800F03CF8C7
:100190000AA090E8000C82448344AAF10107DA45E2
:1001A00001D100F031F8AFF2090EBAE80F0013F0F8
:1001B000010F18BFFB1A43F001031847C0490000A4
:1001C000E0490000103A24BF78C878C1FAD8520735
:1001D00024BF30C830C144BF04680C6070470000C1
:1001E0000023002400250026103A28BF78C1FBD840
:1001F000520728BF30C148BF0B6070471FB504F0DD
:1002000096F81FBD10B510BD00F0D4F81146FFF7E9
:10021000F5FF02F03FFF00F0F2F803B4FFF7F2FF42
:1002200003BC00F0F5F80000094880470948004782
:10023000FEE7FEE7FEE7FEE7FEE7FEE7FEE7FEE796
:10024000FEE7FEE704480549054A064B70470000F3
:100250009121000889010008000D002000130020F2
:10026000000F0020000F002053EA020C00F069800C
:100270002DE9F04B4FF00006002B1FBFB3FA83F5BA
:1002800003FA05F424FA05F65E4012BF1643B2FAEB
:1002900082F502FA05F4C5F120051EBF22FA05FC1D
:1002A00044EA0C04203556EA044C4FEA144418BFC3
:1002B000641C4FF000084FF00009904271EB030CF2
:1002C00039D3002919BFB1FA81F701FA07F6B0FA5C
:1002D00080F700FA07F6C7F120071EBF20FA07FCD7
:1002E00046EA0C062037B6FBF4FCA7EB0507103FE7
:1002F00007F01F0BCBF120060CFA0BFB2CFA06F6CD
:1003000044BFB3460026202FA4BF5E464FF0000B2B
:100310005BEA060C08BF4FF0010B19EB0B09ABFBB6
:10032000027C48EB0608C01B06FB02CC0BFB03CC8F
:1003300071EB0C01C1E70B46024641464846BDE859
:10034000F08B13B54FF000004FF00001AFF30080C9
:10035000BDE81C4070474FF0000200B513469446BC
:100360009646203922BFA0E80C50A0E80C50B1F10D
:100370002001BFF4F7AF090728BFA0E80C5048BF21
:100380000CC05DF804EB890028BF40F8042B08BFBF
:10039000704748BF20F8022B11F0804F18BF00F8BB
:1003A000012B704770477047704700000048704746
:1003B000A00C00207546FFF7F9FFAE460500694620
:1003C000534620F00700854618B020B5FFF73AFFE6
:1003D000BDE820404FF000064FF000074FF0000846
:1003E0004FF0000B21F00701AC46ACE8C009ACE8C7
:1003F000C009ACE8C009ACE8C0098D46704710B52B
:100400000446AFF300802046BDE81040FFF705BF6B
:1004100001491820ABBEFEE7260002007047FEE748
:10042000F0B507462DED068BB0EE408A85B00E463E
:1004300018EE100A03F00AFF9FED2D9B53EC192BC9
:1004400003F0ACFA9FED2CAB53EC1A2B03F07AFCC3
:1004500041EC100B02F030FC51EC100B03F0F6FBFA
:10046000274C05466060D4ED008A18EE900A03F030
:10047000EDFE53EC192B03F091FA53EC1A2B03F019
:1004800061FC41EC100B02F017FC51EC100B03F077
:10049000DDFBF4EEC88A01220021F1EE10FAA06023
:1004A00002DD2273401B02E003D22173281A606030
:1004B00006E0F4EE488AF1EE10FA01D12273616091
:1004C0000D4661680320CDE90250CDE90015217B7E
:1004D00033463A46012000F047F80A4801780029DF
:1004E000FCD0057084ED008A05B0BDEC068BF0BD34
:1004F0009A9999999999B93F0000000000007940B4
:10050000900800204B000020704700001FB5002419
:1005100000948DF800009A208DF801006B20019462
:100520008DF80210029403948DF803208DF80400D6
:10053000012B07D0022B07D0032B0BD0042B08D1A3
:10054000054A02E0054A00E0054A0521684603F035
:10055000E5F81FBD034AF8E7040300208C030020E0
:10056000D0030020140400202DE9FF414FF0000CBF
:10057000DDE90A47CDF800C08DF80000FD208DF8B8
:100580000100CDF804C08DF80210100A8DF80300A8
:100590008DF80420DDE90C658DF80530200E8DF80E
:1005A0000600200C8DF80700CDF808C0200A8DF851
:1005B00008008DF809406B20CDF80CC08DF80A704A
:1005C0008DF80B608DF80C00012D07D0022D07D09F
:1005D000032D0CD0042D08D1064A02E0064A00E0A3
:1005E000064A0D21684603F099F8BDE8FF81044AE8
:1005F000F7E70000040300208C030020D003002054
:100600001404002072B6FEE72DE9F84FDFF8BCA114
:10061000002201250AF1040B03264FF00F090BF10C
:10062000040E00BF0B6805FA02F42340A34270D108
:100630000F7907F00307012F01D0022F16D1876829
:100640004FEA420806FA08FC27EA0C07D1F80CC06A
:100650000CFA08FC4CEA070CC0F808C04768A7432E
:100660000C79C4F3001494403C4344600C79E44397
:10067000A4070AD0C4684FEA420C06FA0CF7BC4340
:100680008F6807FA0CF72743C7600C7904F003045E
:10069000022C12D1D40800EB840CDCF82040570760
:1006A000FF0E09FA07F824EA0804D1F8108008FAC6
:1006B00007F848EA0408CCF8208004684FEA420CA6
:1006C00006FA0CF7BC430F7907F0030707FA0CF79B
:1006D000274307604C6814F4403F70D03C4C2768B7
:1006E00047F480472760246822F0030704F480441D
:1006F0000094384C07EB040CDCF8084897074FEAE5
:10070000177809FA08F7BC43334FB84202D10027E3
:1007100024E054E0314FB84201D101271EE0304FB0
:10072000B84201D1022719E02E4FB84201D1032768
:1007300014E02D4FB84201D104270FE02B4FB842EF
:1007400001D105270AE02A4FB84201D1062705E06A
:10075000284FB84201D1072700E0082707FA08F719
:100760002743CCF80878DAF800405746D1F804C09F
:100770009C435FEACC3C00D51C433C60DBF8004066
:100780005F46D1F804C09C435FEA8C3C00D51C4313
:100790003C60DEF800407746D1F804C09C435FEA35
:1007A000CC2C00D51C433C60084F0C373C68D1F87A
:1007B00004C09C435FEA8C2C00D51C433C60521C57
:1007C000102AFFF42FAFBDE8F88F0000003C014075
:1007D0004438024000300140000002400004024062
:1007E00000080240000C02400010024000140240C9
:1007F00000180240001C02400069084000D001209F
:1008000070470AB1816170470904FBE701488068BD
:1008100070470000500000200248816802781144AF
:1008200081607047500000200B4810B5016841F40A
:1008300000710160016841F480610160016841F468
:1008400080710160032000F06FF80F2000F006F8BF
:1008500000F024F8002010BD003C024070B50D4DA2
:1008600004464FF47A712878B1FBF0F00A49096820
:10087000B1FBF0F000F00AFB48B9102C07D20022BF
:100880002146501E00F030F800206C6070BD012041
:1008900070BD0000500000205C0000200A4808B530
:1008A000016841F480410160006800F480400090DC
:1008B0000548001F016841F080510160006800F0A8
:1008C0008050009008BD000044380240002809DB39
:1008D00000F01F02012191404009800000F1E0205A
:1008E000C0F8001170470000F0B40E4B1B680C46B6
:1008F000C3F30223C3F10705042D00D90425191DF4
:10090000072901D2002300E0DB1E012606FA05F1CB
:10091000491E214099409E40761E16403143F0BC4E
:1009200002F0B8B90CED00E0064900F007020868D3
:100930004FF6FF03184040EA0220034A10430860C4
:10094000704700000CED00E00000FA052DE9F047CB
:100950000E46050065D0DFF81481D8F80000F7B224
:1009600000F00700B04207D288F80070D8F8000005
:1009700000F00700B04254D128683D4C810712D5E1
:10098000400703D5206840F4E05020602878000735
:1009900003D5206840F4604020602068A96820F0FA
:1009A000F000084320602878C0072DD030496868DF
:1009B0000839012812D0022813D0032811D0096861
:1009C000890700292DDA216821F003010143216004
:1009D000FFF71CFF814641F2883A0EE0096889035F
:1009E000EFE709688901ECE7FFF710FFA0EB0901C9
:1009F000514502D90320BDE8F0872068696800F0FE
:100A00000C00B0EB810FEFD1D8F80010404601F098
:100A10000701B14207D90770006800F00700B04233
:100A200001D00120E7E72878400705D52068E9686C
:100A300020F4E050084320602878000706D520689D
:100A4000296920F4604040EAC100206000F038F8D5
:100A50002168084AC1F30311515CC8400649086087
:100A600006480068FFF7FAFE0020C4E7003C024099
:100A700008380240384300085C0000205400002081
:100A80000448054900680968044AC1F38221515CA1
:100A9000C84070475C000020083802404843000806
:100AA0000448054900680968044AC1F34231515CB1
:100AB000C84070475C0000200838024048430008E6
:100AC000154810B5006810F00C02144813D04110FE
:100AD000042A0FD0082A0ED10F4C241F2268236845
:100AE00002F03F025B0207D52068C0F38810A0FB2C
:100AF000010106E0084610BD2168C1F38811A1FB81
:100B000000010023FFF7B0FB2168C1F30141491C3C
:100B10004900B0FBF1F010BD083802400024F40099
:100B20002DE9F84F04006ED02078DFF84C93C00711
:100B3000A9F104054AD009F104000168C1F381015B
:100B4000012908D00068C0F3810002280AD1D9F831
:100B50000000400206D52868800337D56068002869
:100B6000E1D033E06068B0F5803F10D0B0F5A02F41
:100B7000286810D020F480302860286820F4802075
:100B800028606068A8B1FFF741FE06460DE02868BE
:100B900040F48030F4E740F480202860F7E700BF9D
:100BA000FFF734FE801B642873D828688003F7D5CC
:100BB0000CE0FFF72BFE064605E000BFFFF726FE20
:100BC000801B6428F0D828688003F7D42078DFF8E9
:100BD000AC8280074FF0000A3ED5A748001D01688F
:100BE00011F00C0F08D00068C0F3810002280BD16F
:100BF000D9F80000400207D42868800716D5E068BD
:100C0000012800D112E033E1E068B8B10120C8F852
:100C10000000FFF7FBFD064605E000BFFFF7F6FD0D
:100C2000801B0228C0D828688007F7D5286821696A
:100C300020F0F80040EAC10028600DE0C8F800A0EC
:100C4000FFF7E4FD064604E0FFF7E0FD801B022805
:100C50001FD828688007F7D42078000722D5864F50
:100C600087486169703771B101210160FFF7CEFDDE
:100C7000064604E0FFF7CAFD801B022809D8386841
:100C80008007F7D50EE0C0F800A0FFF7BFFD0646CD
:100C900005E082E0FFF7BAFD801B02287DD83868A6
:100CA0008007F7D42078400768D5DFF8CCB100275B
:100CB0000BF13C0BDBF80000C0000BD4DBF800109C
:100CC00041F08051CBF80010DBF80000012700F064
:100CD000805000906B4E3068C00510D4306840F4EE
:100CE00080703060FFF792FD009005E0FFF78EFD09
:100CF0000099401A022850D83068C005F6D55E4EDB
:100D0000A0686C3601280FD00528306810D020F07C
:100D100001003060306820F004003060A068B8B195
:100D2000FFF774FD00900FE0306840F00100F4E739
:100D300040F004003060F7E7FFF768FD0099411AC2
:100D400041F28830814266D830688007F4D50EE0E1
:100D5000FFF75CFD009007E0FFF758FD0099411A8E
:100D600041F28830814256D830688007F4D42FB1E0
:100D7000DBF8001021F08051CBF80010A069C8B357
:100D80003D49091D0968C1F3810102294AD00228A1
:100D9000504607D0C8F8600000E03CE0FFF736FDA1
:100DA00004463BE04746C8F86000FFF72FFD0646C3
:100DB00005E000BFFFF72AFD801B02282BD828681A
:100DC0008001F7D4D4E907010843A16A2E4A4908F3
:100DD00002EB0141626A41EA8211084394F82C1047
:100DE00040EA0161C9F8001001203866FFF70EFDE6
:100DF000044606E03EE000BFFFF708FD001B0228A6
:100E000009D828688001F7D534E000BFFFF7FEFC61
:100E1000001B022802D90320BDE8F88F2868800152
:100E2000F4D427E00128F7D0D9F80000E26900F4F3
:100E3000800191421CD1226A00F03F01914217D1FA
:100E400047F6C071626A0140B1EB821F10D1A26AFD
:100E50004FF0FF3300F4403103EB5202B1EB024F8D
:100E600006D194F82C1000F07060B0EB016F01D047
:100E70000120D1E70020CFE70438024000004742BC
:100E8000800E4742007000400000FFFF10B5401E7A
:100E9000B0F1807F01D3012010BD4FF0E0246061EC
:100EA0000F21601701F0F6FE0020A06107202061ED
:100EB000002010BD70B590F83C20012A32D00124EA
:100EC00080F83C40022280F83D2003685A689D6803
:100ED00022F070060A6832435A60134B02689A4245
:100EE00014D0B2F1804F11D0104B9A420ED0104B5B
:100EF0009A420BD00F4B9A4208D00F4B9A4205D022
:100F00000E4B9A4202D00E4B9A4204D1496825F00A
:100F100080031943916080F83D40002180F83C1027
:100F2000084670BD022070BD000001400004004072
:100F300000080040000C0040000401400040014057
:100F40000018004010B5040003D094F83D0010B123
:100F500007E0012010BD002084F83C00204600F08E
:100F60001FF8022084F83D00211D206801F018F9C7
:100F7000012084F8460084F83E0084F83F0084F89D
:100F8000400084F8410084F8420084F8430084F86B
:100F9000440084F8450084F83D00002010BD0000A6
:100FA00008B50C4A01680C48914207D1016841F02C
:100FB00002010160006800F0020009E0074A914266
:100FC00007D1016841F004010160006800F00400ED
:100FD000009008BD00040040403802400008004076
:100FE00070B5044690F83C000025012817D0012672
:100FF00084F83C60022084F83D002068826822F07A
:10100000770222F47F4282600868502838D00DDCD5
:1010100020284FD005DC90B3102811D14AE00220DF
:1010200070BD302846D040280AD13BE060282FD040
:1010300070280DD0B0F5805F03D0B0F5005F12D0FE
:10104000012584F83D60002084F83C00284670BDEE
:10105000CB68D1E90121206801F013F9206881688B
:1010600041F0770109E0CB68D1E90121206801F066
:1010700008F92068816841F480418160E1E719E066
:10108000CA684968206801F0D1F95021206806E05B
:10109000CA684968206801F0DAF96021206801F027
:1010A000FAF8CEE7CA684968206801F0BFF9402124
:1010B0002068F4E7226801461046F0E710B586B0D4
:1010C000044614216846FFF746F92368174C0021AF
:1010D00017480222A34210D1036843F002030360C1
:1010E000006800F00200059001200090CDE9012188
:1010F000CDE9031269460F4813E00F4CA34212D109
:10110000036843F008030360006800F008000590DE
:101110004FF440500090CDE90121CDE9031269461A
:101120000648FFF771FA06B010BD00000004004049
:10113000303802400004024000080040000C024029
:1011400070B5044690F83C0000260D4601280FD0EB
:10115000012084F83C006AB1042A1DD0082A2FD04F
:101160000C2A3FD00126002084F83C00304670BD98
:10117000022070BD206801F097F82068816941F075
:10118000080181612068816921F004018161206882
:1011900081692A69114311E0206801F0B5F82068DF
:1011A000816941F4006181612068816921F4806175
:1011B0008161206881692A6941EA02218161D2E75F
:1011C000206801F0D7F82068C16941F00801C161C9
:1011D0002068C16921F00401C1612068C1692A69E0
:1011E000114311E0206801F0F9F82068C16941F469
:1011F0000061C1612068C16921F48061C16120681A
:10120000C1692A6941EA0221C161ACE710B5040055
:1012100003D094F83D0010B107E0012010BD00207C
:1012200084F83C00204600F01EF8022084F83D00BF
:10123000211D206800F0B4FF012084F8460084F8E6
:101240003E0084F83F0084F8400084F8410084F8B0
:10125000420084F8430084F8440084F8450084F890
:101260003D00002010BD704710B50446022249B170
:1012700004290ED0082913D094F84100012816D073
:10128000012010BD94F83E000128F9D184F83E20D9
:101290000FE094F83F000128F2D184F83F2008E0E5
:1012A00094F840000128EBD184F8402001E084F854
:1012B00041200122206800F0D7FF16492068164A15
:1012C000884201D0904203D1436C43F4004343640D
:1012D0002068884213D0B0F1804F10D00F49884267
:1012E0000DD00F4988420AD00E49884207D090425B
:1012F00005D00D49884202D00C49884204D181684A
:1013000001F00701062903D0016841F001010160E5
:10131000002010BD00000140000401400004004016
:1013200000080040000C0040004001400018004050
:1013300070B5040004D094F83D00002510B106E01B
:10134000012070BD84F83C50204600F023F8242092
:1013500084F83D002068C16821F40051C160204636
:1013600001F096F92068016921F49041016120683B
:10137000416921F02A0141612068C16841F40051AE
:10138000C1602564202084F83D0084F83E000020E0
:1013900070BD0000F0B587B0044614216846FEF722
:1013A000DAFF6D49DFF8ACC1236800246A4A1039BE
:1013B000032502260827694863451ED1136843F4B4
:1013C00000231360126802F4002205920A6842F0BA
:1013D00001020A600968CDE9005601F00101CDE97A
:1013E00004716946CDE90245FFF70EF90022114666
:1013F0003420FFF779FA342036E0DFF864C1634522
:1014000036D1106840F480101060106800F480102D
:101410000590086840F004000860086800F00400C7
:101420000590086840F008000860086802AB00F00A
:10143000080005904FF48050CDE9000683E8B00025
:1014400069464848FFF7E0F80420CDE9000602AB02
:10145000694683E8B0004448FFF7D6F800221146F9
:101460003520FFF741FA3520FFF730FA07B0F0BD1D
:10147000DFF8F8C00727634522D1374A121D1368E9
:1014800043F010031360126802F0100205920A681C
:1014900042F001020A60096802AA01F00101059107
:1014A0004FF4C061CDE9001682E8B0006946FFF74D
:1014B000ABF8002211462520FFF716FA2520D3E7C6
:1014C000DFF8ACC063451FD1136843F400331360E9
:1014D000126802F4003205920A6842F001020A60C2
:1014E000096802AB01F0010105910C21CDE900165C
:1014F00083E8B0006946FFF787F8002211462620EE
:10150000FFF7F2F92620AFE71A488342AED1106800
:1015100040F480201060106800F480200590086876
:1015200040F002000860086802AB00F0020005907D
:101530004FF44060CDE9000683E8B00069460E48EC
:10154000FFF762F8002211462720FFF7CDF9272088
:101550008AE70000004C0040403802400000024092
:101560000050004000080240000C02400010014002
:101570000044004000480040000402402DE9F843C8
:10158000044690F83D001F4616460D4620284CD1D3
:10159000C5B1BEB194F83C00012846D0012084F8C2
:1015A0003C004FF00008C4F84080212084F83D0042
:1015B000FFF72CF9A6848146E684A068B0F5805F29
:1015C00003D004E00120BDE8F883206928B12E464D
:1015D0005FF0000584F83C800EE00026FAE78021E9
:1015E000204601F0DBF8A0B9AEB116F8010B216876
:1015F0004860E08C401EE084E08C4B464FF00002D7
:1016000000970028EBD14FF04001204601F0C6F8CA
:1016100030B10320D7E735F8020BC0F30800E6E746
:10162000202084F83D000020CDE70220CBE7000019
:10163000BFF34F8F05480168054A01F4E06111438B
:101640000160BFF34F8F00BFFDE700000CED00E02D
:101650000400FA052DE9F04387B014216846FEF72F
:101660007AFE41480024016841F080010160016870
:1016700001F080010591016841F0010101600168FC
:1016800001F001010591016841F004010160016868
:1016900001F004010591016841F002010160016857
:1016A00001F002010591016841F008010160016843
:1016B00001F008010591016841F010010160006826
:1016C0002A4F00F010000590002210213846FFF745
:1016D00098F8DFF89C80002230214046FFF791F80F
:1016E000DFF89090002202214846FFF78AF8012295
:1016F000C0214846FFF785F8102001250226CDE9D4
:101700000005CDE9024669463846FEF77DFF3020E8
:10171000CDE90005CDE9024669464046FEF774FF73
:10172000CDE90065CDE9024669464846FEF76CFF03
:10173000C020009001AA112082E851006946484665
:10174000FEF762FF4FF440708DE83100694648466D
:10175000FEF75AFF03208DE8310069460648FEF780
:1017600053FF07B0BDE8F08330380240000002406C
:1017700000080240000402400010024010B58EB084
:1017800000240794089409940A940B941C21684639
:101790000C94FEF7E0FD20481E4901602921C0E9B4
:1017A00001146321C0E9031480218161FFF7CAFBA2
:1017B00008B1FEF727FF4FF48050079007A916489D
:1017C000FFF70EFC08B1FEF71DFF1348FFF71EFDE3
:1017D00008B1FEF717FF0B940BA90F480C94FFF705
:1017E00069FB08B1FEF70EFF6020CDE9000402940A
:1017F0000822694608480494FFF7A2FC08B1FEF7E6
:1018000001FF08210448FFF72FFD0348FFF756FCAE
:101810000EB010BD000400406800002010B58EB06E
:1018200000240794089409940A940B941C21684698
:101830000C94FEF790FD2748254901605321C0E92B
:10184000011444F62061C0E9031480218161FFF78F
:1018500079FB08B1FEF7D6FE4FF48050079007A938
:101860001C48FFF7BDFB08B1FEF7CCFE1948FFF797
:10187000CDFC08B1FEF7C6FE0B940BA915480C94DD
:10188000FFF718FB08B1FEF7BDFE6020CDE90004AC
:101890000294002269460F480494FFF751FC08B1F6
:1018A000FEF7B0FE042269460A48FFF749FC08B17A
:1018B000FEF7A8FE00210748FFF7D6FC04210548E3
:1018C000FFF7D2FC0348FFF7F9FB0EB010BD000094
:1018D00000080040B000002070B5144C124D4FF4C9
:1018E000E130C4E900500020A0600C21E060C4E9B0
:1018F0000401A061E0612046FFF71AFD08B1FEF780
:1019000081FE28680848001D006821686FF02000EB
:1019100008602068C16841F02001C1602068C1688A
:1019200041F01001C16070BD004C00400403002074
:1019300010B5104C0E480C2120604FF4165060601A
:101940000020A060E060C4E90401A061E0612046DD
:10195000FFF7EEFC08B1FEF755FE21686FF020009E
:1019600008602068C16841F02001C16010BD00001E
:10197000005000404803002070B5134C114D4FF447
:10198000E130C4E900500020A0600C21E060C4E90F
:101990000401A061E0612046FFF7CAFC08B1FEF730
:1019A00031FE2868686821686FF0200008602068B0
:1019B000C16841F02001C1602068C16841F0100198
:1019C000C16070BD001001408C03002070B5144C44
:1019D000124D4FF4E130C4E900500020A0600C210A
:1019E000E060C4E90401A061E0612046FFF7A0FCCB
:1019F00008B1FEF707FE28680848001D0068216846
:101A00006FF0200008602068C16841F02001C160CB
:101A10002068C16841F01001C16070BD0044004001
:101A2000D003002070B5144C124D4FF4E130C4E9DE
:101A300000500020A0600C21E060C4E90401A06116
:101A4000E0612046FFF774FC08B1FEF7DBFD286873
:101A50000848001D006821686FF0200008602068B9
:101A6000C16841F02001C1602068C16841F01001E7
:101A7000C16070BD0048004014040020FEE7000073
:101A800070B50F4D0F4E04000BD4012210212846D3
:101A9000FEF7B7FE002220212846FEF7B2FEA0B2D4
:101AA0000BE0002210212846FEF7ABFE0122202188
:101AB0002846FEF7A6FE604280B23168C86370BD5A
:101AC0000008024068000020FEE7000010B5002179
:101AD000074C0A46002004EBC1131A54401CC0B244
:101AE0008028FAD3491CC9B20829F3D310BD0000DD
:101AF000A0080020F0B50B4424E0044685181DE042
:101B00007F2C19D8002917DB3F2915DCCE1701EBF4
:101B100056764FEAE60C0D4F26F0070607EBCC177A
:101B20002744A1EB060E97F800C0012606FA0EF630
:101B30002CEA060C87F800C0641C24B2A542DFDC46
:101B4000491C09B28B42D8DCF0BD0000A00800207F
:101B500000B587B000214FF47A720020401C9042FB
:101B6000FCD3491C9142F8D314216846FEF7F3FBDD
:101B70000E480021026842F002020260006800F094
:101B80000200059011200190C02000900220CDE9B4
:101B9000021069460648FEF737FD012000F03EFAC4
:101BA000012000F049FA07B000BD000030380240C3
:101BB0000004024070B500240646802525FA04F092
:101BC000304000D0012000F037FA012000F026FA62
:101BD000002000F023FA641CE4B2082CEED30120AC
:101BE00000F01CFABDE87040002000F017BA10B5F4
:101BF000012000F021FA012000F010FA002000F08E
:101C00001BFABDE81040002000F008BA10B5002013
:101C100000F012FA012000F001FABDE810400120A6
:101C200000F00ABA10B5FFF793FFAE2000F012FAE9
:101C3000D52000F00FFA802000F00CFAA82000F068
:101C400009FA3F2000F006FAD32000F003FA002042
:101C500000F000FA402000F0FDF9A12000F0FAF9B0
:101C6000C82000F0F7F9DA2000F0F4F9122000F0B3
:101C7000F1F9812000F0EEF9CF2000F0EBF9D92046
:101C800000F0E8F9F12000F0E5F9DB2000F0E2F9DE
:101C9000302000F0DFF9A42000F0DCF9A62000F0ED
:101CA000D9F98D2000F0D6F9142000F0D3F9AF2037
:101CB00000F0D0F9FFF70AFFBDE8104000F09AB934
:101CC0000246012000E05043491EFCD2704710B587
:101CD0000C4640F0B00000F0BDF9102040EA1410AE
:101CE00000F0B8F904F00F00BDE8104000F0B2B900
:101CF00008B5082B0DD0062B0AD10A4B02EB420285
:101D000003EB4202C03A00920823062200F080F85A
:101D100008BD054B03EB0212A2F5007210230092DE
:101D20000822F3E740490008504300082DE9F04F2E
:101D30009A462DED028BB0EE408AF0EE608A81B0BB
:101D40009FED310B15468B46074653EC102B51EC9B
:101D5000180B0C9C02F0F4F8234605D82B225946A8
:101D60003846FFF7C5FF0AE02D2259463846FFF7EF
:101D7000BFFF51EC180B01F051FD41EC180B51EC79
:101D8000180B01F063FF814601F08DFF53EC182B17
:101D900002F066F941EC180B51460A20FFF790FF5C
:101DA000804601F080FF53EC182B01F0CBFF41EC93
:101DB000100B00F081FF51EC100B01F047FFB0FB5E
:101DC000F8F1064601EB0902381900B22B465946D4
:101DD000009400F07DF8681C00FB047000B22346FC
:101DE0002E225946FFF784FFAD1C05FB047000B29C
:101DF000534632465946009400F06AF801B0BDECF3
:101E0000028BBDE8F08F0000000000000000000021
:101E10002DE9F04F1F4616460C4682460025FFF777
:101E200069FE7F1EF81707EB50700121DFF89CB0A8
:101E300001EBE00745E000203FE000BF0AEB0003B4
:101E40007F2B38D8E11704EB5171CA1021F007013C
:101E5000611A002C03DA521E083112B209B202EBE9
:101E60000509B9F1070F10D80BEBC91E1EF80320A6
:101E700015FB06F8DDF824C0844418F80CC00CFAF1
:101E800001FC42EA0C020EF8032009F10102072AC4
:101E900011D80BEBC91202EB030898F8803015FB40
:101EA00006FC099AC1F1080102441CF80220CA404C
:101EB000134388F88030401CC0B2B042BED36D1CC2
:101EC000EDB2AF42B7DCBDE8F08F0000A008002003
:101ED0002DE9F04700241D4690468A4681460A2790
:101EE000089E14E0291B0A20491EFFF7E9FEB8FBF3
:101EF000F0F0B0FBF7F107FB110204FB069000B213
:101F0000334651463032FFF7F3FE641CE4B2AC4274
:101F1000E8D3BDE8F0872DE9F0411E461546884616
:101F20000746002408E014FB067000B23346414621
:101F3000FFF7DEFE641CE4B22A5D002AF3D1BDE89F
:101F4000F081000010B50C46012804D0022805D00D
:101F5000032806D00DE0062311A204E0062313A2F5
:101F600001E0062314A230210020FFF7D4FF00F087
:101F700041F8012C0DD0022C0ED0032C0FD10623DA
:101F800010A238210020FFF7C6FFBDE8104000F086
:101F900031B806230FA2F4E7062312A2F1E710BD21
:101FA000706C6174653A526564202000706C6174D5
:101FB000653A477265656E00706C6174653A42758A
:101FC0006C652000626F74746C653A42756C6520B4
:101FD00000000000626F74746C653A5265642020E2
:101FE00000000000626F74746C653A477265656E3C
:101FF0000000000070B5084D002400212046FFF7C6
:1020000066FE05EBC410802100F035F8641CE4B2D4
:10201000082CF2D370BD0000A008002010B50246C5
:1020200040210448FEF7EDFBBDE81040012000F020
:10203000BFBE00000004024010B5024680210448E3
:10204000FEF7DFFBBDE81040012000F0B1BE00004C
:102050000004024010B50446FFF7C9FD7820FFF7E1
:10206000A9FD0020FFF7A6FD2046FFF7A3FDBDE870
:102070001040FFF7CBBD70B50D460646FFF7B7FD24
:102080007820FFF797FD4020FFF794FD002404E03F
:10209000305DFFF78FFD641CE4B2AC42F8D3BDE8BD
:1020A0007040FFF7B3BD70470F480178491C0170BD
:1020B00001780E48B1EE000A062913D2DFE801F0DC
:1020C000120C0C030C0CD0ED000AB2EE001A70EEEC
:1020D000C10AC0ED000A0648D0ED000A30EE800AC1
:1020E00080ED000A70470000640000200800002016
:1020F0000C0000207047FEF78FBB000030B593B096
:1021000030216846FEF727F914210CA8FEF723F9C1
:102110001D480025016841F080510160006800F011
:10212000805011901948016841F4804101600068B5
:10213000022400F4804011900120039010200490AC
:10214000009406940820CDE90750A820CDE90904A1
:1021500004200B906846FEF7E3FC08B172B6FEE778
:102160000CA90F2081E831004FF4A0500F904FF4DC
:102170008050109005210CA8FEF7E8FB002801D044
:1021800072B6FEE713B030BD403802400070004028
:102190000248016841F470010160704788ED00E079
:1021A000F0B50268254C264D264E274F274B4FF0A1
:1021B000804CA04209D0604507D0A84205D0B0426B
:1021C00003D0B84201D0984204D122F0700E4A6880
:1021D00042EA0E02A0421BD0604519D0A84217D097
:1021E000B04215D0B84213D0984211D0184DA84231
:1021F0000ED0184DA8420BD0174DA84208D0174D4D
:10220000A84205D0164DA84202D0164DA84203D1CF
:1022100022F44075CA682A434D6922F080022A439D
:1022200002608A68C2620A688262A04201D0984253
:1022300001D10969016301214161F0BD0000014044
:102240000004004000080040000C00400004014071
:102250000040014000440140004801400018004097
:10226000001C00400020004010B501F01F030121B8
:10227000046A99408C430462016A9A4011430162E6
:1022800010BD10B5846842EA032224F47F440A4357
:102290002243826010BD826822F070020A4342F03D
:1022A0000701816070470000F0B5026A22F0010268
:1022B0000262036A42688469124E24F073050C6856
:1022C0002C4323F002058B682B430D4DA84201D00F
:1022D000B04205D123F00807CB683B4323F0040349
:1022E000A84201D0B04205D14D6922F44072154395
:1022F0008A692A4342608461496841630362F0BD90
:102300000000014000040140F0B5026A22F0100212
:102310000262026A436884690D6824F4E64444EA70
:1023200005248D6822F0200242EA05120F4D104E5E
:10233000A84201D0B04206D1CF6822F0800242EA22
:10234000071222F04002A84201D0B04207D14D69E5
:1023500023F4406343EA85038D6943EA85034360C0
:102360008461496881630262F0BD000000000140A1
:1023700000040140F0B5026A22F480720262026A2F
:102380004368C46922F4007224F073050C68124E8D
:102390002C438D6842EA05220E4DA84201D0B0427E
:1023A00006D1CF6822F4006242EA072222F480625A
:1023B000A84201D0B04207D14D6923F4405343EA0B
:1023C00005138D6943EA05134360C4614968C1631D
:1023D0000262F0BD000001400004014030B5026A15
:1023E00022F480520262046A4268C3690D6823F4D1
:1023F000E64343EA05238D6824F4005444EA053497
:10240000084DA84202D0084DA84204D14D6922F4DB
:10241000804242EA85124260C361496801640462F5
:1024200030BD0000000001400004014010B5036A07
:10243000046A24F001040462846924F0F00444EA8C
:10244000021423F00A020A438461026210BD10B52F
:10245000036A23F0100303628369046A23F4704360
:1024600043EA023224F0A00343EA011182610162CF
:1024700010BD000010B5104C2088B2EE080A00F024
:1024800093FB00BF01F0ACF90028FBD020880B497A
:1024900091ED000A00F0A4FA2088094991ED000AA4
:1024A00000F010FB01F060F90028FBD001F07AF990
:1024B0000028F7D010BD00000400002020000020FC
:1024C0002400002038B50025ADF80050194C2068D4
:1024D0000168C9438A06184908D40868C0B200F0E8
:1024E000D1FC21686FF02000086038BD0068C0434F
:1024F000C006FAD41048001F0068086800F012FDFA
:102500000E4CE071ADF800500A4D8C3D0AE000BF62
:1025100000F068FCBDF800106854BDF80000401CD5
:10252000ADF80000BDF80000E1798842F0D3012049
:10253000A07138BD04030020044C00404700002077
:10254000F0B5494806683068C043800677D44748EC
:1025500040684749C2B244480B7A503853B1012B06
:102560000DD000270A2B10D079D2C25403F10103F9
:102570000B7275E0AA2AF8D10270012003E0BB2A91
:10258000F3D14270022008726AE0FF2A67D182729A
:102590000B220A720278AA2A61D14278BB2A5ED144
:1025A000344B82781A70344BC2781A70334B0279EC
:1025B0001A70334A437913708579F2EE040A00EEFB
:1025C000105AC4799FED2F1AB8EE400A037A407A68
:1025D000C0EE201A00EE104A2B4CB8EE400A80EEF6
:1025E000012A31EE820A84ED000A00EE103AB8EEBC
:1025F000400AC0EE201A00EE100A2448B8EE400A45
:10260000C0EE010A31EEA00A80ED000A1378012B1A
:1026100009D01378022B09D01378032B10D012782D
:10262000042A12D01BE094ED000A03E094ED000AA6
:10263000B1EE400A84ED000A90ED000A0DE012E0D0
:1026400094ED000AB1EE400A01E094ED000A84ED39
:10265000000A90ED000AB1EE400A80ED000A0F7208
:102660006FF020003060F0BD4803002000500040B3
:10267000470000200100002002000020030000208D
:102680004600002000007A44380000203C00002072
:1026900070B5044600680169E26821F440511143B5
:1026A00001612169A068E269084361691143084337
:1026B0002168CA6849F20C639A430243CA602068E1
:1026C0004169A26921F44071114341613149206897
:1026D000884202D03049884202D1FEF7E1F901E098
:1026E000FEF7CEF9E2690023192164253226B2F5FE
:1026F000004F626828D0A0FB0101930F9200FDF704
:10270000B3FD0146B0FBF5F06FF01802504301EB4A
:10271000800006EB0010B0FBF5F000F0F002B1FB1A
:10272000F5F002EB0012B1FBF5F06FF0180358431F
:1027300001EB800006EB0010B0FBF5F000F00F009D
:1027400021681044886070BDA0FB010192185B41B4
:10275000FDF78AFD0146B0FBF5F00201B1FBF5F093
:102760006FF01803584301EB800006EBC000B0FB8C
:10277000F5F000F0F80002EB4002B1FBF5F0584331
:1027800001EB800006EBC000B0FBF5F000F00700A5
:10279000D6E7000000100140001401402DE9F0418F
:1027A000984617460E460446069D27E0681C25D02D
:1027B0002DB1FEF72BF8A0EB0800A8421ED9206827
:1027C0000C3050E8001F21F4D07140E80012002ABC
:1027D000F5D12068143050E8001F21F0010140E8D5
:1027E0000012002AF5D1202084F83D0084F83E0034
:1027F000002084F83C000320BDE8F08120680068D8
:1028000036EA000004D00020B842CFD00020F3E721
:102810000120F9E738B50025ADF80050174C2168C4
:102820000868C0438206164808D44068C0B200F069
:102830003DFB21686FF02000086038BD0968C9437E
:10284000C906FAD40168406800F084FB0D4C607042
:10285000ADF800500C4D09E000F0D8FABDF80010BA
:102860006854BDF80000401CADF80000BDF8000041
:1028700061788842F0D30120207038BD8C0300209D
:102880000010014047000020F800002038B5002566
:10289000ADF80050184C20680168C9438A061749F2
:1028A00008D40868C0B200F015FB21686FF0200062
:1028B000086038BD0068C043C006FAD40F48001F46
:1028C0000068086800F05EFB0D4CE070ADF8005049
:1028D0000C4D09E000F0AEFABDF800106854BDF8E8
:1028E0000000401CADF80000BDF80000E17888420F
:1028F000F0D30120A07038BDD00300200444004074
:10290000470000207801002038B50025ADF80050C0
:10291000184C20680168C9438A06174908D408681A
:10292000C0B200F0EBFA21686FF02000086038BDFB
:102930000068C043C006FAD40F48001F006808684A
:1029400000F038FB0D4C6071ADF800500C4D09E003
:1029500000F084FABDF800106854BDF80000401C77
:10296000ADF80000BDF8000061798842F0D3012085
:10297000207138BD140400200448004047000020A6
:10298000F8010020FEE7000070B50546012301466E
:1029900000221846FDF7BAFD0E4801780029FCD048
:1029A000002404700223224629460120FDF7AEFDD3
:1029B000094A10780028FCD014700423002229460C
:1029C0000120FDF7A3FD054801780029FCD0047023
:1029D00070BD000047000020490000204D0000208D
:1029E000F0B507462DED068BB0EE408A85B018EEA7
:1029F000100A01F02BFC9FED2D9B53EC192B00F0DE
:102A0000CDFF9FED2CAB53EC1A2B01F09BF941EC61
:102A1000100B00F051F951EC100B01F017F9274C95
:102A200006466060D4ED008A18EE900A01F00EFCB4
:102A300053EC192B00F0B2FF53EC1A2B01F082F982
:102A400041EC100B00F038F951EC100B01F0FEF8DE
:102A5000F4EEC88A01210025F1EE10FAA06002DD33
:102A60002573801B02E003D22173301A606006E0F8
:102A7000F4EE488AF1EE10FA01D1217365606068C6
:102A8000CDE90005CDE90251217B00233A46012022
:102A9000FDF76AFD0A4801780029FCD0057084ED35
:102AA000008A05B0BDEC068BF0BD00009A9999999B
:102AB0009999B93F000000000000794060080020AB
:102AC00047000020F0B507462DED068BB0EE408A9A
:102AD00085B018EE100A01F0B9FB9FED2D9B53EC69
:102AE000192B00F05BFF9FED2CAB53EC1A2B01F080
:102AF00029F941EC100B00F0DFF851EC100B01F05C
:102B0000A5F8274C06466060D4ED008A18EE900ABE
:102B100001F09CFB53EC192B00F040FF53EC1A2BF7
:102B200001F010F941EC100B00F0C6F851EC100B5D
:102B300001F08CF8F4EEC88A01210025F1EE10FABC
:102B4000A06002DD2573801B02E003D22173301ADE
:102B5000606006E0F4EE488AF1EE10FA01D12173CC
:102B6000656061680220CDE90250CDE90015217B46
:102B700000233A460120FDF7F7FC0A4801780029B6
:102B8000FCD0057084ED008A05B0BDEC068BF0BD6D
:102B90009A9999999999B93F0000000000007940ED
:102BA0007008002049000020F0B507462DED068B87
:102BB000B0EE408A85B018EE100A01F047FB9FED99
:102BC0002EAB53EC1A2B00F0E9FE9FED2D9B53EC3E
:102BD000192B01F0B7F841EC100B00F06DF851EC37
:102BE000100B01F033F8284C06466060D4ED008AE3
:102BF00018EE900A01F02AFB53EC1A2B00F0CEFEDF
:102C000053EC192B01F09EF841EC100B00F054F836
:102C100051EC100B01F01AF8F4EEC88A0025F1EE21
:102C200010FAA06003DD01212173801B02E003D2B2
:102C30002573301A606006E0F4EE488AF1EE10FA6F
:102C400001D12573656061680420CDE90250CDE9AA
:102C500000150E48217B03783A460120FDF784FCDD
:102C60000B4801780029FCD0057084ED008A05B07E
:102C7000BDEC068BF0BD00009A9999999999B93FDE
:102C8000000000000000794080080020450000207E
:102C90004D0000200907090E002804DB00F1E020A8
:102CA00080F80014704700F00F0000F1E02080F879
:102CB000141D70470000000010B52DED020B2DED26
:102CC000088B84B09DED0C0B51EC100B01F06EF9EC
:102CD00041EC180B9DED0C0B53EC182B51EC100B29
:102CE00001F0CAF941EC190B0D989FED290B10F07A
:102CF000004F53EC102B51EC190B9FED21AB9FEDC6
:102D000022BB0ED000F0E2FF0ED953EC1B2B51EC8E
:102D1000190B01F015F91CD214E000BF41EC180B9F
:102D200017E000F0D3FF06D253EC1A2B51EC180B2E
:102D300001F0A2F9F2E753EC1B2B51EC190B01F057
:102D4000FFF806D853EC1A2B51EC180B00F072FD6B
:102D5000E4E78DED028B9DED0C0B18EE901A10EE52
:102D6000900A8DED000B61F31E0003909DED020BA8
:102D700004B0BDEC088B02B010BD000000000000E4
:102D8000000000000000F03F000000000000E03FF5
:102D9000000000000000E0BF01490860704700002B
:102DA000600000204FF47A71484300F001B8000041
:102DB00070B54FF0E024002265690949A3690968EC
:102DC0004843A1699942FCD002D2A3EB010302E07F
:102DD000A5EB010633441A440B468242F1D370BD81
:102DE00060000020084991F8010131F8100091F8C5
:102DF0000121521C81F8012191F80121802A02D37E
:102E0000002281F8012170475E070020084991F8EF
:102E1000010131F8100091F80121521C81F80121C3
:102E200091F80121802A02D3002281F80121704704
:102E300058040020084991F8010131F8100091F878
:102E40000121521C81F8012191F80121802A02D32D
:102E5000002281F8012170475A050020084991F8A5
:102E6000010131F8100091F80121521C81F8012173
:102E700091F80121802A02D3002281F801217047B4
:102E80005C060020084991F8002121F8120091F811
:102E90000001401C81F8000191F80001802802D354
:102EA000002081F8000170475E070020084991F872
:102EB000002121F8120091F80001401C81F8000166
:102EC00091F80001802802D3002081F800017047AA
:102ED00058040020084991F8002121F8120091F8C7
:102EE0000001401C81F8000191F80001802802D304
:102EF000002081F8000170475A050020084991F828
:102F0000002121F8120091F80001401C81F8000115
:102F100091F80001802802D3002081F80001704759
:102F20005C0600200A4890F8011190F800219142B7
:102F300005D890F8001190F80101081A06E090F801
:102F4000011190F80001C1F18001084480B270477E
:102F50005E0700200A4890F8011190F80021914284
:102F600005D890F8001190F80101081A06E090F8D1
:102F7000011190F80001C1F18001084480B270474E
:102F8000580400200A4890F8011190F8002191425D
:102F900005D890F8001190F80101081A06E090F8A1
:102FA000011190F80001C1F18001084480B270471E
:102FB0005A0500200A4890F8011190F8002191422A
:102FC00005D890F8001190F80101081A06E090F871
:102FD000011190F80001C1F18001084480B27047EE
:102FE0005C06002070B5294D4FF400763146284626
:102FF000FDF702FC88B1AE1531462846FDF7FCFB13
:10300000C8B1234D01212846FDF7F6FB08B3022184
:103010002846FDF7F1FB50B336E01420FFF7C2FE5F
:1030200031462846FDF7E8FB0028F9D01420FFF7C9
:10303000B9FE012428E01420FFF7B4FE31462846EB
:10304000FDF7DAFB0028F9D01420FFF7ABFE0224CD
:103050001AE01420FFF7A6FE01212846FDF7CCFB5D
:103060000028F9D01420FFF79DFE03240CE0142063
:10307000FFF798FE02212846FDF7BEFB0028F9D095
:103080001420FFF78FFE0424204670BD0004024088
:10309000001002402DED028B84B000278DF80870DF
:1030A0008DF804708DF80C70FDF7BEFBFFF726F865
:1030B000FEF7D0FAFEF710FCFEF73AFCFEF75CFCD8
:1030C000FEF784FCFEF7AEFCFEF758FBFEF7A6FB0E
:1030D000FEF7A8FDA820FFF75FFE40F6B830FFF727
:1030E00061FE0220FFF750FC4FF0020A4FF0010B87
:1030F0009FEDFE8A4FF47A79FD4C062504F14006D7
:10310000FFF770FF20709DF80800401C8DF8080044
:1031100008209DF808200323009000210846FEF7B0
:10312000D7FEFEF767FF2078012802D0E07801285B
:103130007ED1EF49D84686F803B0322305224031CC
:10314000EC48FEF71BFA0623EBA210210020FEF745
:10315000E2FE00950223227810212A20FEF7B8FE15
:10316000FEF748FFFFF786F9E14986F8028032232F
:1031700005224031DF48FEF701FA41F28830FFF7BF
:1031800011FE94ED0E0A10EE100A01F05FF841EC0A
:10319000100B03231A46182100200095FEF7C6FDE8
:1031A00094ED0F0A10EE100A01F050F841EC100BEC
:1031B00003231A46202100200095FEF7B7FDFEF7F5
:1031C00019FFA1786078FEF7BDFEC949D04686F8A0
:1031D00002A0322305224031C648FEF7CFF9484607
:1031E000FFF7E0FD94ED080AD4ED0E0AA08830EE5A
:1031F000200AD4ED0A0A30EE200AFFF7F1FB94ED25
:10320000090AD4ED0F0AA08830EE200AD4ED0B0A8B
:1032100030EE200AFFF756FC00F0A6FA0028FBD09B
:1032200000F0C0FA0028F7D0A088B0EE480A00E00D
:1032300070E0FFF7B9FC00BF00F0D2FA0028FBD025
:10324000012000F045FA002000F082FA4846FFF71E
:10325000A9FDA088B2EE080AFFF7A6FC00F0C0FAAC
:103260000028FBD094ED020AD4ED0C0AA08830EEC1
:10327000200AD4ED0A0A30EE200AFFF7B1FB94EDE4
:10328000030AD4ED0D0AA08830EE200AD4ED0B0A13
:1032900030EE200AFFF716FC00F066FA0028FBD09B
:1032A00000F080FA0028F7D0A0889FED950AFFF77C
:1032B0007BFC00BF00F094FA0028FBD0FEF7F4FE80
:1032C000002000F005FA012000F042FA4FF4FA70F5
:1032D000FFF768FD002000F03BFA9DF80400401C59
:1032E0008DF804009DF8042003230095102142204E
:1032F000FEF7EEFDFEF77EFE9DF80400012808D1E2
:103300007B4986F803803223052240317948FEF755
:1033100035F9E7702078022802D0E07802287DD1C4
:103320007349D04686F803A0322305224031714804
:10333000FEF724F9062373A210210020FEF7EBFD0F
:1033400000950223227810212A20FEF7C1FDFEF706
:1033500051FEFFF78FF8664986F802B03223052246
:1033600040316448FEF70AF941F28830FFF71AFD50
:1033700094ED0E0A10EE100A00F068FF41EC100BFD
:1033800003231A46182100200095FEF7CFFC94ED88
:103390000F0A10EE100A00F059FF41EC100B032346
:1033A0001A46202100200095FEF7C0FCFEF722FE01
:1033B000A1786078FEF7C6FD4D4986F80280322379
:1033C000052240314B48FEF7D9F894ED080AD4EDB8
:1033D0000E0AA08830EE200AD4ED0A0A30EE200A48
:1033E000FFF7FEFA94ED090AD4ED0F0AA08830EE3B
:1033F000200AD4ED0B0A30EE200AFFF763FB00BF72
:1034000000F0B2F90028FBD000F0CCF90028F7D08A
:10341000A088B0EE480AFFF7C7FB00E056E000F0D6
:10342000DFF90028F9D0012000F052F9002000F067
:103430008FF94846FFF7B6FCA088B2EE080AFFF7FE
:10344000B3FB00BF00F0CCF90028FBD094ED040AD8
:10345000D4ED0A0AA08830EE200AFFF7C1FA94EDF5
:10346000050AD4ED0B0AA08830EE200AFFF72AFBEC
:1034700000F07AF90028FBD000F094F90028F7D08A
:10348000A0889FED220AFFF78FFB00BF00F0A8F98C
:103490000028FBD0002000F01BF9012000F058F9B3
:1034A0004FF4FA70FFF77EFC002000F051F99DF810
:1034B0000C00401C8DF80C009DF80C200323009597
:1034C00010215A20FEF704FDFEF794FD2078032812
:1034D00002D0E07803287CD106230DA21021002021
:1034E000FEF719FD00950223227815E06666C63FB7
:1034F0000000002048030020706C617465203A00D1
:103500009A991940626F74746C653A009A99F14007
:103510006361702020203A0010212A20FEF7D8FC99
:10352000FEF768FDA088B2EE080AFFF73DFB00BF7A
:1035300000F056F90028FBD094ED060AD4ED0A0AF3
:10354000A08830EE200AFFF74BFA94ED070AD4ED7D
:103550000B0AA08830EE200AFFF7B4FA00F004F955
:103560000028FBD000F01EF90028F7D0A0889FEDBE
:10357000500AFFF719FB00BF00F032F90028FBD01A
:10358000012000F0A5F8002000F0E2F84846FFF71F
:1035900009FCA088B2EE080AFFF706FB00F020F94C
:1035A0000028FBD094ED040AD4ED0A0AA08830EE7E
:1035B000200AFFF715FA94ED050AD4ED0B0AA0884E
:1035C00030EE200AFFF77EFA00F0CEF80028FBD09C
:1035D00000E049E000F0E6F80028F5D0A088B2EE5F
:1035E000020AFFF7E1FA00BF00F0FAF80028FBD06A
:1035F000002000F06DF8012000F0AAF84846FFF71F
:10360000D1FB1E2164209FED2B0AFCF709FFA08847
:10361000B2EE080AFFF7C8FA00F0E2F80028FBD083
:10362000002000F095F8062323A210210020FEF7C9
:1036300072FC00950223227810212A20FEF748FC14
:10364000FEF7D8FC0220FFF79FF940F6B830FFF7ED
:10365000A9FB6FF06300FEF713FA41F28830FFF721
:10366000A1FB0020FEF70CFA2078042803D0E078B4
:1036700004287FF445AD062311A210210020FEF797
:103680004AFC00950223227810212A20FEF720FC14
:10369000FEF7B0FC0320B070322305220A490B4824
:1036A000FDF76CFFB770A1786078FEF74BFC27E55B
:1036B0006666A63F9A99254172657472756E3A00E6
:1036C0006361726420203A0040000020480300201B
:1036D0000449096818B140F6C410486370474FF4B4
:1036E000FA70FAE7B000002008B50022ADF800201B
:1036F0000A68C0F3080050604FF4FA52086808E006
:10370000BDF80010491CADF80010BDF80010914242
:1037100002D801680906F3D508BD000078B5054652
:10372000002016460C468DF8000000BF8DF8000002
:103730009DF80000A04209D29DF80000285C3146A7
:10374000FFF7D2FF9DF80000401CEFE778BD0000B6
:103750000449096818B140F6C410886370474FF4F3
:10376000FA70FAE7B00000200B49002088700B487F
:103770000278012A0ED1C2786B2A0BD1084A12783E
:10378000042A07D14278FD2A04D180789F2801D1EC
:10379000012088708878704764000020F8000020BD
:1037A000480000200B490020C8700B480278012A0D
:1037B0000ED1C2786B2A0BD1084A1278042A07D19D
:1037C0004278FD2A04D180789F2801D10120C87059
:1037D000C878704764000020780100204A0000206B
:1037E0000B49002048700B480278012A0ED1C2789C
:1037F0006B2A0BD1084A1278042A07D14278FD2A95
:1038000004D180789F2801D1012048704878704702
:1038100064000020780200204E00002081F000416A
:10382000704780F00040704721F00041704720F061
:103830000040704710B591EA030F48BF83F0004382
:1038400000F12284841A71EB030C05D2121943EBA8
:103850000C03001B61EB0C01DFF824E14FEA11546B
:10386000A4EB135C1EEA430F18BF9EEA445F73D0BB
:1038700023EA0E03DCF1200E21EA045143F4801305
:1038800032D322FA0CFE10EB0E0023FA0CFE41EBB1
:103890000E01CCF1200E03FA0EFE10EB0E0051F1DA
:1038A0000001B1F5801FCCF1200E32D201EB0451A2
:1038B00012FA0EF2BDE8104058BF7047401C38BFE6
:1038C0005FEA420218BF7047002814BF20F00100D1
:1038D00041F100014FEA410313F5001F38BF704763
:1038E000A1F1C04100F026BB012A43EB0302ACF179
:1038F000200CDCF11F0E32BF4FF0000E23FA0CF348
:1039000010EB030041EB0451B4EB115FD0D0A1EBFD
:10391000045101F5801149085FEA300001EB0451C0
:103920000ED350F1000038BF12FA0EFE08D1BDE8E8
:103930001040C9E7401C38BF5FEA4202CAD1C3E762
:10394000BDE810404FEA410313F5001F38BF704730
:10395000A1F1C04100F0EEBA9EEA445F08D011EA3E
:103960005E0FBDE8104004BF01F000410020704729
:10397000BDE8104070B500F08FFA00BF64FBBE3E9A
:103980000000E0FF491058BFC1F140415B1058BF33
:10399000C3F140438B42EFF3008070472DE9C041F3
:1039A00030B4DFF8A0C23CEA111418BF3CEA13148B
:1039B00000F0EC8081EA03051CEA111444EAD57496
:1039C00018BF1CEA131500F0C780A4EB05044FF0E4
:1039D000004545EAC12145EAC32341EA505143EA83
:1039E000525304F17F74994204F500344FEAC02029
:1039F0004FEAC22208BF904200F09C804FEA136554
:103A00000FF24016765D4FEA134506FB05F7C7F146
:103A1000807706FB07F74FEAD737A7FB03687642A4
:103A2000C8F58038A7FB06CE38BFA8F1010807FB10
:103A300008E64FF0000EA6FB028CE6FB03CEDCF19D
:103A4000000CCEF1004E38BFAEF1010EA6FB0C58B3
:103A50004FF000074FF00005E6FB0E87A1FB08C6FC
:103A6000A0FB07CE16EB0E0645F10005E1FB07654E
:103A700015F1E04E7EBFA4F580345FEA46066D4145
:103A800016F1800745F100054FEA17274FEA066651
:103A900047EA0567A6F1DE46B6F1805F4FEA1525D5
:103AA0001FD9384624F0010C05EBC471BCF1FE6F40
:103AB00001EB0C1102D8F0BCBDE8008124425CBFD0
:103AC00001F5801E9EEAC47F02D4F0BCBDE80081EF
:103AD000244238D4F0BCA1F1C041BDE8004100F05F
:103AE00029BA4FEAD22242EA43524FEAD323A7FB34
:103AF00002864FEAD02040EA415007FB03661EEAE7
:103B00000E0F4FEAD12105FB026658BFA6EB005607
:103B1000B6EB00564FEA520E4EEAC37E18EB0E0E7D
:103B200056EB530EBDD518EB02085E417F1C55F1D4
:103B30000005B6E74FF480154FF000074FF0000680
:103B40004FF00008ADE7F0BC4FF0000001F1C041BC
:103B500001F00041BDE8008111EA0C1F0CEA1315C9
:103B600000D00CE013EA0C1F00F025804FF000009D
:103B7000F0BC81EA030101F00041BDE80081F0BC26
:103B8000BDE8004181EA030100F0D4B9F0BCBDE812
:103B9000004170B500F080F9097EFC3E00F007B8E6
:103BA00081EA03014FF0000001F00041704781EA13
:103BB000030100F0BFB9F0BCBDE800414FF00000C8
:103BC00021497047FFFDFBF9F7F5F4F2F0EEEDEB5C
:103BD000E9E8E6E4E3E1E0DEDDDBDAD8D7D5D4D30B
:103BE000D1D0CFCDCCCBCAC8C7C6C5C4C2C1C0BF57
:103BF000BEBDBCBBBAB9B8B7B6B5B4B3B2B1B0AF5D
:103C0000AEADACABAAA9A8A8A7A6A5A4A3A3A2A140
:103C1000A09F9F9E9D9C9C9B9A99999897979695FB
:103C200095949393929191908F8F8E8E8D8C8C8B97
:103C30008B8A89898888878786858584848383821F
:103C4000828181800000FF070000F87F4FEA115356
:103C5000A3F58063D3F11E03A8BFD3F1200C08DBCA
:103C60004FF0004242EAC12252EA505232FA03F0C7
:103C7000704709420BD4102BC4BF0020704703F5D6
:103C8000787CBCF1FF3F05D04FF0FF3070474FF01C
:103C90000000704770B500F0FFF800BF4992248023
:103CA00000207047F0E7B0FA80F310FA03F10AD071
:103CB000C3F11D0303F580634FEA41504FEA0352FD
:103CC00002EBD12170474FF00000704751EA030C1E
:103CD00017D41CF5801F58BFBCF5801F00F106806B
:103CE000994218BF704708BF9042704707D711F537
:103CF000801F58BF13F5801F19D49942704789421D
:103D000070471CF5801F08D5BCF5801FF7D58B4286
:103D100018BF704708BF824270474FF4001C1CEB6D
:103D2000410F38BF1CEB430F01D28B42704770B577
:103D300000F0B2F8922449004FF000514FF0805348
:103D4000FFF720BEDFF848C170B51CEA111E1EBF88
:103D50001CEA13159EEA0C0F95EA0C0F00F06F8019
:103D600081EA030423EA4C134EEAD47E21EA4C1183
:103D700041F4801143F48013AE44A1FB024CA0FB3C
:103D80000365AEF17F7E361955EB0C05A1FB034CA4
:103D90004CF10003A0FB021C16EB0C06654153F12D
:103DA0000003094218BF46F0010613F4007F0BD14F
:103DB0004FEA03314FEA0530340341EA155140EA36
:103DC00016506FF003020AE04FEAC3214FEAC52004
:103DD000F40241EA555140EA56506FF0020202EBFC
:103DE0002E4201EB025585EACE710AD05FEA440CFF
:103DF00018BF24F0004450F1000041F1000120EA16
:103E0000D47040F2FE7C624500D270BDA84214BF5F
:103E10004FF080444FF04044002E08BF0024BEF114
:103E2000806FA8BFA1F1C041BDE8704080F28280E0
:103E30004FF0000001F1C04101F0004170479EEADF
:103E40000C0F0CEA131518BF95EA0C0F06D04FF0B3
:103E5000000081EA030E0EF0004170BD00F01CF876
:103E60008900013E00F007B800F009B84FEA430CA2
:103E70005FEA5C5C08D081EA030100F05BB84FEABE
:103E8000410C5FEA5C5CF6D14FF0000001497047DD
:103E90000000FF070000F87F0EF1020E2EF0030E67
:103EA0005EF8046B364205D4012A43EB030515F591
:103EB000001F12D8012841EB010C1CF5001F0CD883
:103EC0000ED14FEAD17C15F5001F0CEB4C0C0CF118
:103ED000020C08BF4CEBD37C04E04FF0080C01E06F
:103EE0004FEAD37C0CEB4C0526FA05F606F00706E4
:103EF000B6F1040C06D20EEB860CBDE870404CF017
:103F0000010C6047DFE80CF0090B02024FF00041A2
:103F10004FF00000A1F5002170BD194610460128A0
:103F200051EB010418BFD4F5001484BF002001F048
:103F3000004170BD0808A0F500114FEA310170473B
:103F400053EA010C17D41CF5801F58BFBCF5801F25
:103F500000F106808B4218BF704708BF824270474D
:103F600007D713F5801F58BF11F5801F19D48B4256
:103F700070479B4270471CF5801F08D5BCF5801F19
:103F8000F7D5994218BF704708BF904270474FF469
:103F9000001C1CEB430F38BF1CEB410F01D29942B0
:103FA00070470FB40CBC03BCFFF7C1BE5FEA410C05
:103FB0005FEA5C5CACF580635B1C39D4D3F13402FE
:103FC00040F34580B2F1200314DA4FF0010C0CFAF3
:103FD00002FCACF101030340B3EB5C0220EA0300F6
:103FE00008BF10EA0C0F98BF704710EB0C0041F1AE
:103FF000000170470AD0C3F1200201FA02FC012837
:1040000021FA03F101FA03F14CF100004FF0010C29
:104010000CFA03FCACF10103B0F1004F21EA0301FB
:1040200008BF11EA0C0F4FF0000088BF61447047D1
:10403000B3F1FF3F28BF50EAC12C01F000414FF01F
:10404000000084BF41F07C5141F470017047B3F52A
:10405000806FB8BF704770B5FFF71EFF40DBB6BE7C
:1040600091EA030F10B581F000413FF5EBAB83F00F
:10407000004300F009B8000010B591EA030F48BFF3
:1040800083F000433FF5DEAB841A71EB030C07D2DB
:1040900012198CF0004C43EB0C03001B61EB0C017C
:1040A000DFF8A4E14FEA1154A4EB135C1EEA430FBE
:1040B00018BF9EEA445F00F0B08023EA6E035242CC
:1040C00021EA0451C3EB6E0338BF5B1EDCF1200E06
:1040D00025D322FA0CFE10EB0E0043FA0CFE41EB46
:1040E0000E01CCF1200E03FA0EFE10EB0E0051F182
:1040F0000001CCF1200E29D412FA0EF201EB04518A
:10410000BDE8104058BF7047401C1CBFB2F1004FC3
:10411000704700280CBF491C20F00100704712EBCB
:10412000020E43EB030218BF4FF0010E4EEA4202AB
:10413000ACF1200CDCF11E0E54D943FA0CFE10EB4E
:104140000E0051F1FF31CCF11E0ED5D50EF1010E4E
:1041500012FA0EFE404141EB010101EB445C5FEAC3
:104160005C5C10D910EBDE7001EB045138BFBEF17E
:10417000004FBDE8104018BF704700280CBF491C15
:1041800020F00100704730D24FEAD42C11F5001115
:1041900024F400641BD0B1FA81F20B3AA41AA41ED5
:1041A000D2F12003914030FA03F31943904001EB20
:1041B000CC71002C01EB0451BDE81040A8BF704742
:1041C00001F1C0414FF0000001F000417047B0FA2A
:1041D00080F310FA03F100D110BDE41A173C480532
:1041E000C90AE4E701EB045110BD491001EB045189
:1041F000BDE810404FEA300002E04FF00001704788
:104200004A0008BF0042F8D0B2F5001F28BF70472F
:1042100001F000414FF0000070479EEA445F07D074
:1042200011EA5E0FBDE8104004BF00210020704776
:10423000BDE8104070B5FFF72FFE00BF40DFF63E2F
:1042400083F00041104670470000E0FF43004FEA52
:10425000D30C4FEA3C0C43401FBF40070CF16051A8
:1042600013F0FE4F70471CF0006F03D100200CF0DC
:10427000004170470CF0004343EA507010B540EA2B
:10428000CC0000F00EF800BF000000924FEA0001E1
:10429000FFF750BE4FF000414FF00000A1F50021A4
:1042A00070470EF1020E2EF0030E5EF8044B24420E
:1042B00004D44FEA4102B2F17F4F11D84FEA4003D4
:1042C000B3F17F4F0CD80ED14FEAD07CB2F17F4FC3
:1042D0000CEB4C0C0CF1020C08BF4CEBD17C04E055
:1042E0004FF0080C01E04FEAD17C0CEB4C0324FAB0
:1042F00003F404F00704B4F1040C06D20EEB840CB2
:10430000BDE810404CF0010C6047DFE80CF00708F6
:1043100002024FF00040A0F5800010BD08464200A8
:1043200018BFD2F1807288BF00F0004010BD4FF07E
:104330004070E1EE100A704700000000000000002D
:10434000010203040607080900000000010203043B
:10435000000000000000000000000000000000005D
:10436000000000F8000000000000003330000000F2
:1043700000160E00160E00000000000000000000F5
:1043800040C07840C0784000043F04043F0404006B
:10439000007088FC08300000001820FF211E00007B
:1043A000F008F000E018000000211C031E211E0090
:1043B00000F00888700000001E2123241927211016
:1043C000000000160E0000000000000000000000C9
:1043D000000000E018040200000000071820400060
:1043E00000020418E0000000004020180700000050
:1043F000404080F0804040000202010F01020200B4
:10440000000000F0000000000101011F0101010097
:10441000000000000000000000B07000000000007C
:104420000000000000000000000101010101010185
:10443000000000000000000000303000000000001C
:1044400000000000806018040060180601000000F1
:1044500000E010080810E000000F102020100F00EE
:10446000001010F8000000000020203F2020000075
:1044700000700808088870000030282422213000CD
:1044800000300888884830000018202020110E00D5
:104490000000C02010F8000000070424243F24007E
:1044A00000F80888880808000019212020110E0053
:1044B00000E0108888180000000F112020110E0065
:1044C00000380808C83808000000003F000000005D
:1044D0000070880808887000001C222121221C001E
:1044E00000E010080810E0000000312222110F0047
:1044F000000000C0C00000000000003030000000DC
:10450000000000C0C0000000000080B0700000008B
:104510000000804020100800000102040810200064
:1045200040404040404040000404040404040400AF
:104530000008102040800000002010080402010044
:10454000007048080808F000000000303601000044
:10455000C030C828E810E0000718272423140B00F7
:104560000000C038E0000000203C23020227382071
:1045700008F8888888700000203F202020110E0055
:10458000C03008080808380007182020201008004C
:1045900008F808080810E000203F202020100F0035
:1045A00008F88888E8081000203F20202320180001
:1045B00008F88888E8081000203F20000300000069
:1045C000C03008080838000007182020221E02000A
:1045D00008F808000008F808203F210101213F20C9
:1045E000000808F8080800000020203F20200000F4
:1045F00000000808F8080800C08080807F000000E4
:1046000008F888C028180800203F2001263820001C
:1046100008F8080000000000203F20202020300083
:1046200008F8F800F8F80800203F003F003F20009D
:1046300008F830C00008F808203F200007183F00A5
:10464000E01008080810E0000F10202020100F00D4
:1046500008F808080808F000203F210101010000C7
:10466000E01008080810E0000F18242438504F000C
:1046700008F8888888887000203F2000030C3020CC
:1046800000708808080838000038202121221C000A
:10469000180808F8080818000000203F2000000053
:1046A00008F808000008F808001F202020201F003C
:1046B0000878880000C83808000007380E0100009C
:1046C000F80800F80008F800033C0700073C030066
:1046D000081868808068180820302C03032C3020CC
:1046E0000838C800C83808000000203F200000003B
:1046F00010080808C8380800203826212020180093
:10470000000000FE020202000000007F4040400066
:10471000000C30C000000000000000010638C0009E
:1047200000020202FE000000004040407F00000046
:104730000020100804081020000000000000000005
:104740000000000000000000808080808080808069
:10475000000204080000000000000000000000004B
:1047600000008080808000000019242222223F2047
:1047700008F8008080000000003F112020110E008A
:104780000000008080800000000E11202020110019
:10479000000000808088F800000E112020103F20CB
:1047A0000000808080800000001F2222222213004F
:1047B000008080F0888888180020203F202000009A
:1047C0000000808080808000006B9494949360004F
:1047D00008F8008080800000203F210000203F205A
:1047E00000809898000000000020203F202000005A
:1047F000000000809898000000C08080807F00004A
:1048000008F8000080808000203F24022D30200026
:10481000000808F8000000000020203F20200000D1
:104820008080808080808000203F20003F20003FEB
:10483000008080008080000000203F2100203F2079
:104840000000808080800000001F202020201F00AA
:10485000808000808000000080FFA12020110E00D9
:104860000000008080808000000E112020A0FF80CA
:10487000808080008080800020203F212000010077
:1048800000008080808080000033242424241900CC
:10489000008080E0808000000000001F20200000D9
:1048A0008080000000808000001F202020103F201A
:1048B000808080000080808000010E3008060100AA
:1048C00080800080008080800F300C030C300F004F
:1048D00000808000808080000020312E0E3120007A
:1048E000808080000080808080818E7018060100AA
:1048F00000808080808080000021302C22213000C8
:1049000000000000807C020200000000003F4040E8
:1049100000000000FF00000000000000FF00000099
:104920000002027C800000000040403F00000000C8
:104930000080404080000080000000000001010075
:104940000000000000000000002F00000000070031
:10495000070000147F147F1400242A7F2A120023EA
:104960001308646200364955225000000007000019
:1049700000001C224100000041221C000014083EDF
:1049800008140008083E0808000000A060000008A5
:1049900008080808000060600000002010080402F9
:1049A000003E5149453E0000427F400000426151B7
:1049B0004946002141454B31001814127F10002751
:1049C00045454539003C4A49493000017109050314
:1049D00000364949493600064949291E0000363645
:1049E00000000000563600000008142241000014A8
:1049F0001414141400004122140800020151090685
:104A0000003E4955592E007C1211127C007F494905
:104A10004936003E41414122007F4141221C007F36
:104A200049494941007F09090901003E4149497A44
:104A3000007F0808087F0000417F410000204041BE
:104A40003F01007F08142241007F40404040007F2A
:104A5000020C027F007F0408107F003E4141413E6E
:104A6000007F09090906003E4151215E007F0919B6
:104A700029460046494949310001017F0101003FB3
:104A80004040403F001F2040201F003F4038403F33
:104A90000063140814630007087008070061514997
:104AA000454300007F41410000020408102000003F
:104AB00041417F00000402010204004040404040A8
:104AC000000001020400002054545478007F484440
:104AD000443800384444442000384444487F003877
:104AE0005454541800087E0901020018A4A4A47CA0
:104AF000007F080404780000447D4000004080846A
:104B00007D00007F102844000000417F4000007CB1
:104B100004180478007C08040478003844444438BD
:104B200000FC242424180018242418FC007C080409
:104B3000040800485454542000043F444020003CE2
:104B40004040207C001C2040201C003C4030403C69
:104B5000004428102844001CA0A0A07C00446454F9
:104B60004C440000087F41000000007F000000006E
:104B7000417F080000080408100800009C4B000852
:104B80000000002068000000C4010008044C000878
:104B90006800002098120000E001000800000000FA
:104BA000F4010000B072C5416DE7BB409CC4E04118
:104BB0004C37BD410AD77541D34DC24108AC344191
:104BC00085EB47419A99B9C06666E6BE000080C091
:104BD000000000C00000000000000000A1A20000D2
:104BE000FE1E0000000000000000000001000000A8
:104BF00010000000000000000024F400000000008D
:044C000000000000B0
:040000050800018965
:00000001FF
